{
  "contractName": "DappTokenSale",
  "abi": [
    {
      "constant": true,
      "inputs": [],
      "name": "tokensSold",
      "outputs": [
        {
          "name": "",
          "type": "uint256"
        }
      ],
      "payable": false,
      "stateMutability": "view",
      "type": "function"
    },
    {
      "constant": true,
      "inputs": [],
      "name": "tokenContract",
      "outputs": [
        {
          "name": "",
          "type": "address"
        }
      ],
      "payable": false,
      "stateMutability": "view",
      "type": "function"
    },
    {
      "constant": true,
      "inputs": [],
      "name": "tokenPrice",
      "outputs": [
        {
          "name": "",
          "type": "uint256"
        }
      ],
      "payable": false,
      "stateMutability": "view",
      "type": "function"
    },
    {
      "inputs": [
        {
          "name": "_tokenContract",
          "type": "address"
        },
        {
          "name": "_tokenPrice",
          "type": "uint256"
        }
      ],
      "payable": false,
      "stateMutability": "nonpayable",
      "type": "constructor"
    },
    {
      "anonymous": false,
      "inputs": [
        {
          "indexed": false,
          "name": "_buyer",
          "type": "address"
        },
        {
          "indexed": false,
          "name": "_amount",
          "type": "uint256"
        }
      ],
      "name": "Sell",
      "type": "event"
    },
    {
      "constant": false,
      "inputs": [
        {
          "name": "_numberOfTokens",
          "type": "uint256"
        }
      ],
      "name": "buyTokens",
      "outputs": [],
      "payable": true,
      "stateMutability": "payable",
      "type": "function"
    },
    {
      "constant": true,
      "inputs": [],
      "name": "balanceOfThis",
      "outputs": [
        {
          "name": "",
          "type": "uint256"
        }
      ],
      "payable": false,
      "stateMutability": "view",
      "type": "function"
    },
    {
      "constant": false,
      "inputs": [],
      "name": "endSale",
      "outputs": [],
      "payable": false,
      "stateMutability": "nonpayable",
      "type": "function"
    }
  ],
  "bytecode": "0x608060405234801561001057600080fd5b5060405160408061073e8339810180604052810190808051906020019092919080519060200190929190505050336000806101000a81548173ffffffffffffffffffffffffffffffffffffffff021916908373ffffffffffffffffffffffffffffffffffffffff16021790555081600160006101000a81548173ffffffffffffffffffffffffffffffffffffffff021916908373ffffffffffffffffffffffffffffffffffffffff160217905550806002819055505050610668806100d66000396000f300608060405260043610610078576000357c0100000000000000000000000000000000000000000000000000000000900463ffffffff1680633610724e1461007d578063380d831b1461009d578063518ab2a8146100b457806355a373d6146100df5780637ff9b59614610136578063999eb6b114610161575b600080fd5b61009b6004803603810190808035906020019092919050505061018c565b005b3480156100a957600080fd5b506100b2610223565b005b3480156100c057600080fd5b506100c96104db565b6040518082815260200191505060405180910390f35b3480156100eb57600080fd5b506100f46104e1565b604051808273ffffffffffffffffffffffffffffffffffffffff1673ffffffffffffffffffffffffffffffffffffffff16815260200191505060405180910390f35b34801561014257600080fd5b5061014b610507565b6040518082815260200191505060405180910390f35b34801561016d57600080fd5b5061017661050d565b6040518082815260200191505060405180910390f35b6101988160025461060c565b341415156101a557600080fd5b806003600082825401925050819055507f5e5e995ce3133561afceaa51a9a154d5db228cd7525d34df5185582c18d3df093382604051808373ffffffffffffffffffffffffffffffffffffffff1673ffffffffffffffffffffffffffffffffffffffff1681526020018281526020019250505060405180910390a150565b6000809054906101000a900473ffffffffffffffffffffffffffffffffffffffff1673ffffffffffffffffffffffffffffffffffffffff163373ffffffffffffffffffffffffffffffffffffffff1614151561027e57600080fd5b600160009054906101000a900473ffffffffffffffffffffffffffffffffffffffff1673ffffffffffffffffffffffffffffffffffffffff1663a9059cbb6000809054906101000a900473ffffffffffffffffffffffffffffffffffffffff16600160009054906101000a900473ffffffffffffffffffffffffffffffffffffffff1673ffffffffffffffffffffffffffffffffffffffff166370a08231306040518263ffffffff167c0100000000000000000000000000000000000000000000000000000000028152600401808273ffffffffffffffffffffffffffffffffffffffff1673ffffffffffffffffffffffffffffffffffffffff168152602001915050602060405180830381600087803b15801561039b57600080fd5b505af11580156103af573d6000803e3d6000fd5b505050506040513d60208110156103c557600080fd5b81019080805190602001909291905050506040518363ffffffff167c0100000000000000000000000000000000000000000000000000000000028152600401808373ffffffffffffffffffffffffffffffffffffffff1673ffffffffffffffffffffffffffffffffffffffff16815260200182815260200192505050602060405180830381600087803b15801561045b57600080fd5b505af115801561046f573d6000803e3d6000fd5b505050506040513d602081101561048557600080fd5b810190808051906020019092919050505015156104a157600080fd5b6000809054906101000a900473ffffffffffffffffffffffffffffffffffffffff1673ffffffffffffffffffffffffffffffffffffffff16ff5b60035481565b600160009054906101000a900473ffffffffffffffffffffffffffffffffffffffff1681565b60025481565b6000600160009054906101000a900473ffffffffffffffffffffffffffffffffffffffff1673ffffffffffffffffffffffffffffffffffffffff166370a08231306040518263ffffffff167c0100000000000000000000000000000000000000000000000000000000028152600401808273ffffffffffffffffffffffffffffffffffffffff1673ffffffffffffffffffffffffffffffffffffffff168152602001915050602060405180830381600087803b1580156105cc57600080fd5b505af11580156105e0573d6000803e3d6000fd5b505050506040513d60208110156105f657600080fd5b8101908080519060200190929190505050905090565b60008082148061062b5750828283850292508281151561062857fe5b04145b151561063657600080fd5b929150505600a165627a7a723058205e039aa2aef0290401d2d6280426cb2b3b81f2405eaeb748d533311ab0a102900029",
  "source": "pragma solidity >=0.4.21 <0.6.0;\n\nimport './DappToken.sol';\n\ncontract DappTokenSale {\n    address admin;\n    DappToken public tokenContract;\n    uint256 public tokenPrice;\n    uint256 public tokensSold;\n\n    event Sell(address _buyer, uint256 _amount);\n\n    constructor(DappToken _tokenContract, uint256 _tokenPrice) public {\n        admin = msg.sender;\n        tokenContract = _tokenContract;\n        tokenPrice = _tokenPrice;\n    }\n\n    // Multiply\n    function multiply(uint x, uint y) internal pure returns (uint z) {\n        require (y == 0 || (z = x * y) / y == x);\n    }\n\n    function buyTokens(uint256 _numberOfTokens) public payable {\n        require(msg.value == multiply(_numberOfTokens, tokenPrice));\n//        require(tokenContract.balanceOf(this) >= _numberOfTokens);\n//        require(tokenContract.transfer(msg.sender, _numberOfTokens));\n\n        tokensSold += _numberOfTokens;\n\n        emit Sell(msg.sender, _numberOfTokens);\n    }\n\n    function balanceOfThis() public view returns(uint) {\n        return tokenContract.balanceOf(this);\n    }\n\n    function endSale() public {\n        require(msg.sender == admin);\n        require(tokenContract.transfer(admin, tokenContract.balanceOf(this)));\n        selfdestruct(admin);\n    }\n}",
  "sourcePath": "/home/rajkumara/projects/block-chain/ethereum/token_sale/contracts/DappTokenSale.sol",
  "compiler": {
    "name": "solc",
    "version": "0.4.25+commit.59dbf8f1.Emscripten.clang"
  },
  "schemaVersion": "2.0.2",
  "updatedAt": "2019-03-15T12:27:15.853Z"
}